:100000000C94A8000C94D0000C94D0000C94D00058
:100010000C94D0000C94D0000C94D0000C94D00020
:100020000C94D0000C94D0000C94D0000C94D00010
:100030000C94D0000C94D0000C94D0000C94D00000
:100040000C94D61B0C94D0000C94811F0C94B31FFD
:100050000C94D0000C94D0000C94D0000C94D000E0
:100060000C948D050C94D00007634236B79BD8A73B
:100070001A39685618AEBAAB558C1D3CB7CC5763CD
:10008000BD6DEDFD753EF6177231BF000000803F7B
:1000900008000000BE922449123EABAAAA2ABECD97
:1000A000CCCC4C3E00000080BEABAAAAAA3E000009
:1000B0000000BF000000803F000000000008417801
:1000C000D3BB4387D1133D190E3CC3BD4282AD2B38
:1000D0003E68EC8276BED98FE1A93E4C80EFFFBE30
:1000E00001C4FF7F3F000000000000000008000284
:1000F00001000003040700000000000000000102EE
:1001000004081020408001020408102001020408A5
:100110001020040404040404040402020202020283
:1001200003030303030300000000250028002B0045
:1001300000000000240027002A001302AB04BC0CBE
:100140009D0E7310CC1001150C15E31F8120330296
:1001500011241FBECFEFD8E0DEBFCDBF13E0A0E07B
:10016000B1E0ECE5FEE402C005900D92A639B107BE
:10017000D9F725E0A6E9B3E001C01D92A038B20787
:10018000E1F711E0CEE4D1E004C02297FE010E9425
:10019000D325CA33D107C9F70E94DA210C9421274D
:1001A0000C9400002DEE32E0FC0131832083089591
:1001B00008952DEE32E0FC01318320830C949220CF
:1001C00061E082E00E94141D64EF71E080E090E045
:1001D0000E944F1C61E083E00E94141D64EF71E0F7
:1001E00080E090E00E944F1C61E085E00E94141DB9
:1001F00064EF71E080E090E00E944F1C61E086E0D7
:100200000E94141D64EF71E080E090E00E944F1C9A
:1002100061E087E00E94141D64EF71E080E090E0EF
:100220000E944F1C61E088E00E94141D64EF71E0A1
:1002300080E090E00E944F1C61E089E00E94141D64
:1002400064EF71E080E090E00E944F1C60E089E084
:100250000E94141D64EF71E080E090E00E944F1C4A
:1002600060E088E00E94141D64EF71E080E090E09F
:100270000E944F1C64EF71E080E090E00E944F1CF0
:1002800060E087E00E94141D64EF71E080E090E080
:100290000E944F1C60E086E00E94141D64EF71E034
:1002A00080E090E00E944F1C60E085E00E94141DF9
:1002B00064EF71E080E090E00E944F1C60E083E01A
:1002C0000E94141D64EF71E080E090E00E944F1CDA
:1002D00060E082E00E94141D64EF71E080E090E035
:1002E0000C944F1CCF93DF93CDB7DEB7A8970FB612
:1002F000F894DEBF0FBECDBFBE016F5F7F4F88EAAF
:1003000093E00E94C7066BE271E089ED94E00E94E1
:100310009F1D60E571E089ED94E00E94881DBE019B
:100320006F5F7F4F89ED94E00E949F1D6FE571E044
:1003300089ED94E00E94881D4D855E856F857889E2
:100340002AE030E089ED94E00E946E1E6EE671E0D6
:1003500089ED94E00E94881D49895A896B897C89BE
:100360002AE030E089ED94E00E946E1E6DE771E0B6
:1003700089ED94E00E94881D498D5A8D6B8D7C8D8E
:1003800022E030E089ED94E00E947F1F63E171E09C
:1003900089ED94E00E949F1D6CE871E089ED94E086
:1003A0000E94881D4D8D5E8D6F8D78A122E030E01A
:1003B00089ED94E00E947F1F63E171E089ED94E094
:1003C0000E949F1D6BE971E089ED94E00E94881DF9
:1003D00049A15AA16BA17CA122E030E089ED94E013
:1003E0000E947F1F63E171E089ED94E00E949F1DF0
:1003F0006BE271E089ED94E00E949F1D60E773E07D
:1004000089ED94E00E949F1D64EF71E080E090E030
:100410000E944F1CA8960FB6F894DEBF0FBECDBF4A
:10042000DF91CF9108950F9345E657E260E070E0C9
:1004300088EA93E00E94590700E020E040E060E095
:1004400082EA93E00E946A2000E120E048EA60EC42
:100450008CE993E00E946A2060E570E086E993E011
:100460000F910C94D0138DEE92E09093A90380939A
:10047000A8030895CF93DF9300D000D000D0CDB76C
:10048000DEB726E040E052EC61E070E089ED94E0F8
:100490000E94772161E082E00E94DB1C61E083E042
:1004A0000E94DB1C61E085E00E94DB1C61E086E0CD
:1004B0000E94DB1C61E087E00E94DB1C61E088E0B9
:1004C0000E94DB1C61E089E00E94DB1C6AEA71E0AB
:1004D00089ED94E00E949F1D60E773E089ED94E050
:1004E0000E949F1D63E070E088EA93E00E9410087C
:1004F000811107C06FEB71E089ED94E00E94881DC7
:10050000FFCF0E94720183E893E09A8389838091F0
:100510009E0390919F03A091A003B091A1038B83B0
:100520009C83AD83BE83AE014F5F5F4F6AE071E095
:100530008AE894E00E94560C86E993E00E948C13AE
:100540006CEF71E089ED94E00E94881D6AE874E028
:10055000CE0101960E94940CBE016F5F7F4F89ED22
:1005600094E00E94B11D26960FB6F894DEBF0FBE30
:10057000CDBFDF91CF9108950F931F93CF93DF935A
:10058000CDB7DEB7E5970FB6F894DEBF0FBECDBF8F
:1005900066E973E0CE0185960E949414CE0185969B
:1005A0000E94EF0C882309F4FAC06AE072E089ED3A
:1005B00094E00E949F1D11E0CE0185960E94790E65
:1005C000882309F4DCC0CE0185960E941C0D892B7E
:1005D00099F3CE0185960E94250D082FE091D9044C
:1005E000F091DA040190F081E02D682F89ED94E01C
:1005F00009950A3009F0BEC01123E9F265E172E005
:10060000CE0185960E949F1D65E272E0CE0185961F
:100610000E949F1D6DE372E0CE0185960E949F1D92
:100620006FE472E0CE0185960E949F1DCE018596F3
:100630000E949B1D6AE572E0CE0185960E949F1D77
:100640006AE672E0CE0185960E949F1D80E00E94BE
:10065000B81B8C0161E772E0CE0185960E94881D6F
:100660004AE050E060E070E0CE0185960E94661E90
:100670006FE772E0CE0185960E94881D4AE050E047
:10068000B801CE0185960E94661E64E872E0CE0134
:1006900085960E94881D0E94E000BE016F5F7F4F1B
:1006A00088EA93E00E947E0ABE016E5C7F4F88EA72
:1006B00093E00E94950867E972E0CE0185960E945A
:1006C000881D4AA95BA96CA97DA922E030E0CE0172
:1006D00085960E947F1F68E171E0CE0185960E9499
:1006E0009F1D67EA72E0CE0185960E94881D0D89E4
:1006F0001E892F89388D40E050E56DE774E488EA63
:1007000093E00E946307AB01BC0122E030E0CE0120
:1007100085960E947F1F6BE171E0CE0185960E9455
:100720009F1D60E773E0CE0185960E949F1D66EBDA
:1007300072E0CE0185960E94881D4D895E896F8981
:10074000788D22E030E0CE0185960E947F1F63E124
:1007500071E0CE0185960E949F1D66EC72E0CE018D
:1007600085960E949F1D6DEC72E0CE0185960E94D9
:100770009F1D05C00D3009F41FCF10E01DCF61E0B3
:1007800070E080E090E00E944F1CCE0185960E94B0
:100790003F0E65ED72E089ED94E00E949F1DE596A5
:1007A0000FB6F894DEBF0FBECDBFDF91CF911F9182
:1007B0000F9108958091DF0390E02091E003821B68
:1007C000910908952091E0038091DF03281750F4E8
:1007D000E22FF0E0EF51FC4F808190E02F5F2093FB
:1007E000E00308958FEF9FEF0895E091E00380917B
:1007F000DF03E81730F4F0E0EF51FC4F808190E028
:1008000008958FEF9FEF08950895CF92DF92EF92B2
:10081000FF920F931F93CF93DF937C01CB018A014B
:100820002091BB03222389F0EB016B01C40ED51E7E
:10083000CC15DD0569F06991D701ED91FC9101902E
:10084000F081E02DC7010995F3CF642F0E94640564
:10085000C801DF91CF911F910F91FF90EF90DF9032
:10086000CF900895CF93DF931F92CDB7DEB7698302
:100870002091BB032223D1F02091BC03203240F011
:1008800021E030E0FC013383228380E090E015C05A
:100890008091BD03E82FF0E0E254FC4F99819083F2
:1008A0008F5F8093BD038093BC0305C061E0CE01E0
:1008B00001960E94640581E090E00F90DF91CF9156
:1008C0000895FC011382128248EE53E060E070E06C
:1008D00044835583668377838BEF92E09183808393
:1008E00008951092E0031092DF031092BD0310925E
:1008F000BC030C94AF04862F413208F040E261EE55
:1009000073E00E94CD041092E0038093DF0308950A
:1009100021E00C947B0481E08093BB036093DE03B1
:100920001092BD031092BC0308950F93062F21E08F
:100930004091BC036EEB73E08091DE030E941105D1
:100940001092BD031092BC031092BB030F91089547
:1009500061E00C9495048FEA93E00C94610410928A
:100960006E0481E080936C0410926B0461E082E17C
:100970000E94141D61E083E10E94141DE9EBF0E088
:1009800080818E7F808380818D7F808388E48093C7
:10099000B80085E48093BC000895413208F03FC060
:1009A00090916E049111FCCF91E090936E0420938E
:1009B0006C042FEF2093010410924604240F20931F
:1009C000450490936D0490916D04880F892B80935A
:1009D0006D0480916B04813041F410926B0480911E
:1009E0006D048093BB0085EC01C085EE8093BC0054
:1009F00080916E048130E1F380914604841710F4F5
:100A00004091460427E434E0FB01D9018A2F821B80
:100A1000841718F48D918193F9CF842F089580E085
:100A200008950F93413208F046C090916E049111E1
:100A3000FCCF92E090936E0400936C049FEF909330
:100A400001041092460440934504FB0167E474E0FE
:100A5000DB019A2F961B941718F491919D93F9CF6F
:100A600010926D0490916D04880F892B80936D0412
:100A700080916B04813041F410926B0480916D047D
:100A80008093BB0085EC01C085EE8093BC002223DF
:100A900021F080916E048230E1F3809101048F3F58
:100AA00061F080910104803251F080910104803323
:100AB00041F483E007C081E005C080E003C082E02C
:100AC00001C084E00F910895613298F420916E0482
:100AD000243089F460932304FC0185E294E0DC0176
:100AE0002A2F281B261718F421912D93F9CF80E087
:100AF000089581E0089582E0089585ED8093BC001B
:100B00008091BC0084FDFCCF10926E04089585ECAA
:100B10008093BC0010926E0408951F920F920FB63E
:100B20000F9211242F933F934F935F936F937F9373
:100B30008F939F93AF93BF93EF93FF938091B900EF
:100B4000887F803609F49CC068F5883209F45BC060
:100B500090F4803109F454C038F4882309F4F5C0C6
:100B6000883009F44DC0F5C0883109F44CC080329A
:100B700009F45DC0EEC0803409F468C048F48033E5
:100B800009F455C0883309F0E4C080930104A8C07B
:100B9000803509F44FC0883509F45DC0883409F008
:100BA000D8C0D5C0883909F4C6C0A8F4883709F47C
:100BB00067C038F4883609F463C0803709F460C030
:100BC000C8C0883809F4B7C0803909F45FC08038DC
:100BD00009F0BFC05BC0803B09F485C038F4803A9F
:100BE00009F466C0883A09F47EC0B3C0803C09F4B9
:100BF000A6C0883C09F4A3C0883B09F489C0A9C0F9
:100C000080916D0410C0909146048091450498171E
:100C100070F5E091460481E08E0F80934604F0E089
:100C2000E95BFB4F80818093BB0085EC85C080939E
:100C300001048DC0E091460481E08E0F809346044C
:100C40008091BB00F0E0E95BFB4F8083909146040C
:100C5000809145046DC0E091460481E08E0F809341
:100C600046048091BB00F0E0E95BFB4F80838091FC
:100C70006C0481116CC081E080936B0484EA60C0D5
:100C800083E080936E0410920204CFCF809102041F
:100C9000803208F050C0E091020481E08E0F809312
:100CA00002048091BB00F0E0ED5FFB4F8083BDCF7D
:100CB00080910204803230F4E0910204F0E0ED5FB4
:100CC000FB4F10820E947D056091020470E0E0916C
:100CD0006704F091680483E094E00995109202049F
:100CE0000E94870536C084E080936E04109224042D
:100CF00010922304E0916904F0916A0409958091AF
:100D00002304811105C081E08093230410922504FF
:100D1000E091240481E08E0F80932404F0E0EB5DE9
:100D2000FB4F80818093BB00909124048091230429
:100D3000981708F47ACF85E88093BC000AC085EC48
:100D40008093BC0010926E0404C0109201040E94B3
:100D50007D05FF91EF91BF91AF919F918F917F9111
:100D60006F915F914F913F912F910F900FBE0F9018
:100D70001F9018952DEE32E0FC01318320830895F9
:100D80002DEE32E0FC01318320830C9492200F93EE
:100D90001F93CF93DF938C01EB0188E2FB0111924B
:100DA0008A95E9F74BE050E067E073E0CE010E94DE
:100DB00012271B8641E050E060E070E04C875D87C1
:100DC0006E877F87F8014381548165817681488BE6
:100DD000598B6A8B7B8B46E050E060E070E04C8B77
:100DE0005D8B6E8B7F8B1CA21DA21EA21FA240E0FA
:100DF00050E869E874E4488F598F6A8F7B8F40E030
:100E000050E066E973E44C8F5D8F6E8F7F8F4AE010
:100E100057ED63E27CE348A359A36AA37BA3DF9168
:100E2000CF911F910F910895CF92DF92EF92FF9291
:100E300080917A0490917B04481B590B61097109D8
:100E4000A0917804B09179049A01AB010E94BE256B
:100E50006B017C018FE0F594E794D794C7948A9551
:100E6000D1F76091820470918304882777FD809583
:100E7000982F2BE0660F771F881F991F2A95D1F7AF
:100E80002091840430918504442737FD4095542FE8
:100E90002C0D3D1D4E1D5F1D0E949F252C0D3D1DDF
:100EA0004E1D5F1DCA01B901FF90EF90DF90CF90FA
:100EB000089522E133E0FC0131832083438354838E
:100EC000658376830895CF92DF92EF92FF920F931E
:100ED0001F936A017B01C901B801A70196010E9415
:100EE000522221E03EED42E45EE30E9404249B0195
:100EF000AC0160E070E080E89FE30E94E92120E01F
:100F00003AE24DE257E40E94A1231F910F91FF9016
:100F1000EF90DF90CF900895CF93C82F67E78FEAC7
:100F200093E00E948B0464EF8FEA93E00E94320406
:100F30006C2F8FEA93E00E9432048FEA93E0CF9106
:100F40000C94A8041F93CF93DF93182FEB0167E74E
:100F50008FEA93E00E948B04612F8FEA93E00E9456
:100F600032048FEA93E00E94A80441E067E78FEA29
:100F700093E00E9488048FEA93E00E94E203888352
:100F80008FEA93E0DF91CF911F910C94A8041F93F7
:100F9000CF93DF93182FEB0167E78FEA93E00E946E
:100FA0008B04612F8FEA93E00E9432048FEA93E072
:100FB0000E94A80442E067E78FEA93E00E94880459
:100FC0008FEA93E00E94E203182F8FEA93E00E94D9
:100FD000E20320E030E0312F822B932B998388832A
:100FE0008FEA93E0DF91CF911F910C94A8040F93A7
:100FF0001F93CF93DF9300D0CDB7DEB78B01BE0137
:101000006F5F7F4F0E94C70789819A81F8019183A2
:1010100080830F900F90DF91CF911F910F910895D2
:101020000F931F93CF93DF931F92CDB7DEB78B0142
:101030008FEA93E00E947104BE016F5F7F4F80EDE5
:101040000E94A2078981853509F041C0C80104309A
:10105000110510F083E090E080936F0460E774E086
:101060008AEA0E94F70762E774E08CEA0E94F707B9
:1010700064E774E08EEA0E94F70766E774E080EBAD
:101080000E94C70768E774E082EB0E94C7076AE71F
:1010900074E084EB0E94C7076CE774E086EB0E9463
:1010A000F7076EE774E088EB0E94F70760E874E0EA
:1010B0008AEB0E94F70762E874E08CEB0E94F70766
:1010C00064E874E08EEB0E94F70781E001C080E0E5
:1010D0000F90DF91CF911F910F9108950F931F9360
:1010E000CF93DF9300D0CDB7DEB78C018EE20E94A4
:1010F0008C0765E070E080E090E00E944F1CBE012C
:101100006F5F7F4F86EF0E94C70749815A8160E079
:1011100070E0F80140835183628373830F900F90D6
:10112000DF91CF911F910F910895EF92FF920F934E
:101130001F93CF93DF9300D000D0CDB7DEB77C01F3
:101140008B01CE0101960E946E0849815A816B8104
:101150007C81C7010E941407685F7F4F8F4F9F4FAC
:1011600034E095958795779567953A95D1F70E94E4
:10117000ED2220E030E040E251E40E945222F801EA
:1011800060837183828393830F900F900F900F90F1
:10119000DF91CF911F910F91FF90EF9008953F92B3
:1011A0004F925F926F927F928F929F92AF92BF9277
:1011B000CF92DF92EF92FF920F931F93CF93DF9323
:1011C000CDB7DEB761970FB6F894DEBF0FBECDBFC7
:1011D0008C01798B688B19821A821B821C82CE014A
:1011E00001960E946E0880916F048295880F880F87
:1011F000807C8C5C0E948C0780916F04813069F048
:1012000038F0823079F46EE070E080E090E00EC05B
:1012100065E070E080E090E009C068E070E080E0A8
:1012200090E004C06AE170E080E090E00E944F1C12
:10123000BE016B5F7F4F86EF0E94C7078D819E8145
:10124000A0E0B0E02227382F492F5A2F288739876E
:101250004A875B87BE01695F7F4F88EF0E94A207C4
:1012600030906F048F81288539854A855B85280FEA
:10127000311D411D511D88E090E08319910904C082
:1012800055954795379527958A95D2F728873987B9
:101290004A875B8749815A816B817C81C8010E94A2
:1012A00014074B015C0130EA831A3FE0930AA1085E
:1012B000B108A5019401C501B4010E946D252B015F
:1012C0003C016CE075946794579447946A95D1F704
:1012D000E0917004F0917104A0917404B0917504D0
:1012E0000E94C9256B017C017DE0F594E794D794B9
:1012F000C7947A95D1F7A0917C04B0917D04A301A5
:1013000092010E94C925BB2797FDB095AB2FC80E4F
:10131000D91EEA1EFB1E42E0C40ED11CE11CF11CCA
:10132000B2E0F594E794D794C794BA95D1F750E812
:10133000D50EE11CF11CA0917604B0917704A701B1
:1013400096010E94BE25DC01CB011FE0B695A79552
:10135000979587951A95D1F78C879D87AE87BF871C
:101360006F01EE24D7FCE094FE2C02E0CC0CDD1CD7
:10137000EE1CFF1C0A95D1F7A0917E04B0917F046A
:10138000A30192010E94C9252B013C018BE07594B9
:101390006794579447948A95D1F7A0917204B091BD
:1013A0007304A50194010E94C9252BE095958795AA
:1013B000779567952A95D1F7460E571E681E791EB8
:1013C000C40CD51CE61CF71C032C04C0CC0CDD1C83
:1013D000EE1CFF1C0A94D2F792E0C90ED11CE11C4E
:1013E000F11C32E0F594E794D794C7943A95D1F77D
:1013F000288539854A855B852C193D094E095F0989
:1014000060E573EC80E090E004C095958795779552
:1014100067953A94D2F70E946D2597FD0DC0660F2F
:10142000771F881F991F2C853D854E855F850E94FB
:101430007D2549015A010CC02C853D854E855F856F
:101440000E947D2549015A01880C991CAA1CBB1CCD
:101450009927B7FC9A958B2D7A2D692D9B01AC01AC
:101460000E946D259B01AC01AEEDBBE00E94BE2544
:101470006C01FF24D7FCF094EF2CA3E4B3EEA5019C
:1014800094010E94CC25BB2797FDB095AB2FC80EC9
:10149000D91EEA1EFB1EAFECCA0EAEE0DA1EE11C3E
:1014A000F11CF4E0F594E794D794C794FA95D1F73A
:1014B000C80CD91CEA1CFB1CC701B6010E94ED2216
:1014C000E889F989608371838283938361960FB67B
:1014D000F894DEBF0FBECDBFDF91CF911F910F916A
:1014E000FF90EF90DF90CF90BF90AF909F908F9044
:1014F0007F906F905F904F903F9008950F931F9350
:10150000CF93DF9300D000D0CDB7DEB78B0124E2BC
:10151000FB0111922A95E9F744E250E060E070E0A7
:10152000F8014083518362837383FC0143815481BA
:1015300065817681F801448355836683778346E02D
:1015400050E060E070E04087518762877387108ABF
:10155000118A128A138ABE016F5F7F4F0E94CF08E3
:1015600020E030E048EC52E469817A818B819C81F3
:101570000E945222F801648B758B868B978B81E0D9
:101580000F900F900F900F90DF91CF911F910F91BF
:101590000895CF93CFB7F89480918904811127C023
:1015A000ECE1F1E08491E8E0F1E09491E82FF0E0E3
:1015B000EE0FFF1FE05DFE4FA591B4918C91892342
:1015C00021F461E08AE00E94141D61E08AE00E943B
:1015D000DB1C8CB580618CBD8CB580648CBD61E0FA
:1015E0008DE00E94DB1C61E08BE00E94DB1C80919F
:1015F00089048F5F80938904CFBFCF910895209194
:101600008804222399F03FB7F89420918804213070
:1016100059F42DB3209386044DB32091870420956F
:1016200024232DBB3FBF02C0309386048CBD9DBDDB
:10163000089580918804882361F09FB7F8942091E1
:10164000880480918604213019F48DBB9FBF0895D2
:101650008FBF089544E050E0BC0181E090E00C941D
:10166000AF1944E050E0BC0185E090E00C94AF1964
:1016700044E050E0BC018FE090E00C94AF198F92F1
:101680009F92AF92BF92CF92DF92EF92FF920F9311
:101690001F93CF93DF9300D0CDB7DEB74C016A0123
:1016A000590180EC94E069837A830E94471980E5B0
:1016B00090E00E94FF0A46E050E069817A8189E06B
:1016C00090E00E94AF19C60102960E94380BC80133
:1016D00002960E942A0BC70102960E94310B0E94BB
:1016E000190BF5014281538164817581F4014283B4
:1016F0005383648375830F900F90DF91CF911F9177
:101700000F91FF90EF90DF90CF90BF90AF909F90A0
:101710008F9008956F927F928F929F92AF92BF9217
:10172000CF92DF92EF92FF920F931F93CF93DF93AD
:10173000CDB7DEB76E970FB6F894DEBF0FBECDBF44
:101740006C015B017A014901380100E02FEF4FEF96
:101750006FEFCE0149960E946A2023E833E03A8376
:1017600029838B8D9C8DAD8DBE8D8B839C83AD83AA
:10177000BE8338872F83F30182819381A481B58151
:1017800089879A87AB87BC873E872D87F401828142
:101790009381A481B5818F87988BA98BBA8B3C8B61
:1017A0002B8BF70142815381648175814D8B5E8B58
:1017B0006F8B788FCE0101967C018E01095F1F4FE0
:1017C0009E01235F3F4FAE014D5E5F4FB501C601E5
:1017D0000E943F0B6E960FB6F894DEBF0FBECDBFD2
:1017E000DF91CF911F910F91FF90EF90DF90CF90FD
:1017F000BF90AF909F908F907F906F900895CF9201
:10180000DF92EF92FF920F931F93CF93DF93CDB7A9
:10181000DEB768970FB6F894DEBF0FBECDBF6B0181
:101820007901DA0112964D915D916D917C91159738
:101830004D8B5E8B6F8B788FA3E8B3E0BA83A9835F
:1018400021E0288F0D891E892F89388D0B831C83F9
:101850002D833E83B887AF83F701028113812481F2
:10186000358109871A872B873C87BE87AD874F87CD
:10187000588B698B7A8B8E010F5F1F4F9E01295FFA
:101880003F4FAE01435F5F4FB6010E948A0B6896DF
:101890000FB6F894DEBF0FBECDBFDF91CF911F9181
:1018A0000F91FF90EF90DF90CF9008950F931F93CB
:1018B000CF93DF93CDB7DEB762970FB6F894DEBF54
:1018C0000FBECDBFDB01FA01428153816481758176
:1018D0004F87588B698B7A8BE3E8F3E0FA83E983CF
:1018E00021E02A8B0F85188929893A890B831C836B
:1018F0002D833E83F887EF8349875A876B877C87E0
:101900009E012F5F3F4FAE01495F5F4FBD010E94B7
:10191000FF0B62960FB6F894DEBF0FBECDBFDF910E
:10192000CF911F910F910895CF93DF93EC010E9407
:10193000602080E590E00E94FF0ABE016E5F7F4F4D
:1019400044E050E08FE090E00E94E01A0E94190B02
:10195000CE01DF91CF91089523E833E0FC0131837C
:101960002083FB014281538164817581FC014283A4
:1019700053836483758308950F9300E020E040E073
:1019800060E08AE994E00E946A208AE894E00F917E
:101990000C94602081E086270895862F0895DC014D
:1019A000ED91FC91048CF58DE02D099591E089274E
:1019B0000895CF93DF931F92CDB7DEB76983DC0123
:1019C000ED91FC910280F381E02D41E050E0BE01F9
:1019D0006F5F7F4F09950F90DF91CF91089521E0C0
:1019E000FC018485843009F420E0822F0895FC01F5
:1019F0009485FB018485981303C081E0943009F439
:101A000080E008950F931F93CF93DF93EC018A0139
:101A10008C85843021F00E94E916892B39F481E00D
:101A200090E09B838A8380E090E001C0C801DF9151
:101A3000CF911F910F910895FC018485843011F09E
:101A40000C94E01780E090E00895CF93DF931F920D
:101A5000CDB7DEB741E050E0BE016F5F7F4FFC01C4
:101A600084850E948017181619061CF4898190E05D
:101A700002C08FEF9FEF0F90DF91CF910895FC018F
:101A800084850C9480170F931F93CF93DF931F923D
:101A9000CDB7DEB78C01DC01ED91FC910480F581BE
:101AA000E02D0995892B51F0BE016F5F7F4FF80142
:101AB00084850E940B18898190E002C08FEF9FEF10
:101AC0000F90DF91CF911F910F910895FC018485B4
:101AD0000C943A18CF92DF92EF92FF920F931F93DC
:101AE000CF93DF93CDB7DEB7AF970FB6F894DEBFD5
:101AF0000FBECDBF7C018B016A01CE0101960E9411
:101B00006020CE0109960E940010CE018A960E94A4
:101B100060206AE874E0CE0184960E94AC0CBE019D
:101B20006C5D7F4FCE0101960E947E10AE01465D36
:101B30005F4FB801CE0101960E94E31281309105FA
:101B4000C1F4D701ED91FC910484F585E02D83E883
:101B500093E09DA38CA30CA51DA52EA53FA50EA3C8
:101B60001FA328A739A7A601BE016C5D7F4FC7013F
:101B70000995AF960FB6F894DEBF0FBECDBFDF91CB
:101B8000CF911F910F91FF90EF90DF90CF9008952C
:101B9000FC01262F1382128248EE53E060E070E0D1
:101BA000448355836683778380E293E091838083C7
:101BB00024870895FC018485843011F00C949315DA
:101BC00080E00895DF92EF92FF920F931F93CF93DF
:101BD000DF93EC017B018A018C85843009F045C0DC
:101BE000D12C8D2D0E949315811102C0DC8607C077
:101BF0008B7F8831D9F3D39484E0D812F2CF8C85CF
:101C0000843099F120911001309111012F5F3F4FE5
:101C100011F420E030EC3093110120931001409139
:101C200010015091110120E061E00E94E515B7011B
:101C30006E5F7F4FA8018C850E946B16811103C0D7
:101C400084E08C8712C0CE010E94DA0D873151F0FA
:101C500061E070E080E090E00E944F1CCE010E94A5
:101C6000DA0DECCF81E090E002C080E090E0DF91FF
:101C7000CF911F910F91FF90EF90DF900895CF9239
:101C8000DF92EF92FF92CF93DF93EC018C8584304B
:101C900049F10E94C3160E94201C6B017C01CE01F9
:101CA0000E94DA0D8823A1F061E070E080E090E00E
:101CB0000E944F1C0E94201C6C197D098E099F09EF
:101CC000683E73408105910550F38C850E94BB15D9
:101CD000EC85F0E0EE0FFF1FEE56FB4F11821082F5
:101CE00084E08C87DF91CF91FF90EF90DF90CF90D1
:101CF0000895CF93DF93EC018C858430D1F0CE0131
:101D00000E94DA0D8431A9F0882399F0883189F096
:101D10008C3169F4E881F9810480F581E02DCE01F0
:101D2000099521E0892B09F420E0822F03C081E08E
:101D300001C080E0DF91CF9108950F9300E020E093
:101D400040E060E080EA94E00E946A200F910895EC
:101D5000DC01ED91FC91008CF18DE02D099423E8DC
:101D600033E0FC0131832083FB014189528963897F
:101D70007489FC0142835383648375830895FC0155
:101D8000858996890895FC01818D928D0895CF9360
:101D9000DF931F92CDB7DEB76983DC01ED91FC9133
:101DA0000280F381E02D41E050E0BE016F5F7F4F84
:101DB00009950F90DF91CF910895CF93DF93EC01B8
:101DC000898D9A8D892B41F0E881F9810680F78110
:101DD000E02DCE010995F4CFDF91CF910895CF93F7
:101DE000DF93EC018C85843061F00E94BB15EC859B
:101DF000F0E0EE0FFF1FEE56FB4F1182108284E0E1
:101E00008C87DF91CF910895FC01108E178A6E5F49
:101E10007F4F84850C948218FC0184850C94C8182B
:101E2000CF93DF93EC019A018F89988DAB01BC01B0
:101E30008C850E943B182F89388D280F391F388FC9
:101E40002F8BDF91CF9108950F931F93CF93DF9343
:101E50001F92CDB7DEB78C01FC01818D928D892B4D
:101E600059F041E050E0BE016F5F7F4F84850E94D2
:101E70008017181619061CF08FEF9FEF08C0F801A5
:101E8000818D928D0197928F818F898190E00F9043
:101E9000DF91CF911F910F910895CF93DF93EC01C4
:101EA000898D9A8D009719F48FEF9FEF10C0481716
:101EB000590708F0AC018C850E9480171816190686
:101EC0009CF7298D3A8D281B390B3A8F298FDF918A
:101ED000CF910895CF93DF931F92CDB7DEB7FC016A
:101EE000218D328D232B49F0BE016F5F7F4F84859A
:101EF0000E940B18898190E002C08FEF9FEF0F9036
:101F0000DF91CF910895FF920F931F93CF93DF93AB
:101F1000EC018B018C858430E1F4F12C8F2D0E9433
:101F20009315811102C0FC8606C08831E1F3F39459
:101F300084E0F812F3CF8C85843059F01E870D872A
:101F40001A8E198E20E0A80162E00E94E51581E05A
:101F500001C080E0DF91CF911F910F91FF90089514
:101F60000F931F93CF93DF93CDB7DEB728970FB6AC
:101F7000F894DEBF0FBECDBF8C01DC01ED91FC916A
:101F80000284F385E02D0995F80184850E94E0170D
:101F90001816190644F548E050E0BE016F5F7F4F08
:101FA000D8011C968C910E94801718161906ECF423
:101FB000BE016F5F7F4FC8010F960E9476208D8112
:101FC00090E0982F88272E81820F911DF801968B23
:101FD000858B8F8190E0982F88272885820F911D0F
:101FE000928F818F02C080E090E028960FB6F8941F
:101FF000DEBF0FBECDBFDF91CF911F910F9108952E
:10200000FC011382128248EE53E060E070E04483EA
:1020100055836683778384E493E09183808384E0AF
:102020008487CF010F960C946020CF92DF92EF92BD
:10203000FF920F931F93CF93DF93CDB7DEB7AF9788
:102040000FB6F894DEBF0FBECDBF7C018B016A01D5
:10205000CE0101960E946020CE0109960E940010D8
:10206000CE018A960E9460206AE874E0CE018496D0
:102070000E94AC0CBE016C5D7F4FCE0101960E94A8
:102080007E10AE01465D5F4FB801CE0101960E9401
:10209000E31281309105C1F4D701ED91FC910088E4
:1020A000F189E02D83E893E09DA38CA30CA51DA5E9
:1020B0002EA53FA50EA31FA328A739A7A601BE01E1
:1020C0006C5D7F4FC7010995AF960FB6F894DEBFE0
:1020D0000FBECDBFDF91CF911F910F91FF90EF9079
:1020E000DF90CF9008950F9300E020E040E060E0A3
:1020F00086EA94E00E946A200F910895FB014281D4
:10210000538164817581FC014283538364837583A9
:10211000178216820895CF93FB0181918111FDCF23
:10212000FB0180E090E020E030E0CAE061916623AE
:1021300009F12430310564F56E3271F48F3F910559
:1021400009F034F5DA01A20FB31F12968C932F5FBA
:102150003F4F80E090E0EACFDC01CA9FC001CB9FF7
:10216000900D1124772767FD709560537109860FD4
:10217000971FDCCF8F3F910509F054F424303105CF
:102180003CF4FA01E20FF31F828381E090E002C089
:1021900080E090E0CF9108950F9300E020E040E0D0
:1021A00060E08CEA94E00E946A200F910895AF925B
:1021B000BF92CF92DF92EF92FF920F931F93CF9334
:1021C000DF9300D01F92CDB7DEB76C017B010E9478
:1021D000201CF601778366838601085F1F4FB601D6
:1021E0006A5F7F4F42E050E0C8010E94100F81E01B
:1021F00090E09A83898342E050E0BE016F5F7F4F99
:10220000C8010E94100F80E091E09A83898342E028
:1022100050E0BE016F5F7F4FC8010E94100F1A820D
:10222000198242E050E0BE016F5F7F4FC8010E94FB
:10223000100F42E050E0BE016F5F7F4FC8010E9467
:10224000100F42E050E0BE016F5F7F4FC8010E9457
:10225000100F6701F6018081882311F1F7016F01EA
:102260008191811115C05601AE18BF081A141B04C4
:1022700094F4AB8241E050E0BE016D5F7F4FC80136
:102280000E94100FA501B701C8010E94100F03C0E2
:102290008E3229F7E8CF7601FFEFEF1AFF0ADACF87
:1022A0001B8241E050E0BE016D5F7F4FC8010E947C
:1022B000100FE12CFF24F394FA82E98242E050E00F
:1022C000BE016F5F7F4FC8010E94100FFA82E98242
:1022D00042E050E0BE016F5F7F4FC8010E94100FC7
:1022E00081E090E00F900F900F90DF91CF911F91C0
:1022F0000F91FF90EF90DF90CF90BF90AF90089537
:102300004F925F926F927F928F929F92AF92BF9205
:10231000CF92DF92EF92FF920F931F93CF93DF93B1
:10232000CDB7DEB763970FB6F894DEBF0FBECDBF53
:102330007C015B016A010E94201C2B013C0187018A
:10234000085F1F4F4501A12CB12CC8010E94B00F9E
:102350001816190694F00E94201C64197509860944
:10236000970986169706A806B906D0F062E370E0D2
:1023700080E090E00E944F1CE8CFF701428153813A
:1023800064817581818D928DA38DB48D4817590715
:102390006A077B0741F4858D968DC59721F406C0A9
:1023A0008FEF9FEFF9C08EEF9FEFF6C0C8010E943C
:1023B000C30E0C970CF4EEC04CE050E0BE016F5F12
:1023C0007F4FC8010E944D0F8B819C8198278927E0
:1023D00098279A8B898BF7014681578129813A8109
:1023E0004217530711F497FD06C0C8010E94DD0E85
:1023F0008CEF9FEFD1C08F709270892B31F0C801A4
:102400000E94DD0E8BEF9FEFC7C0AF80B884BA2467
:10241000AB24BA24A114B10419F0E12CF12C23C08F
:10242000C8010E94DD0E8AEF9FEFB6C041E050E088
:10243000BE01635F7F4FC8010E944D0F8D858111E2
:102440001BC08D858111F2CFC8010E94240FC801E5
:102450000E94240FC8010E94240FC8010E94240F6B
:10246000FFEFEF1AFF0A8D819E8198278927982711
:10247000E816F906D8F20AC08D859FEF980F9D8760
:102480008823F9F2C8010E94240FF6CFE12CF12C29
:1024900041E050E0BE016D5E7F4FC8010E944D0FCC
:1024A0008B89982F907C61F4882371F08B899FEF42
:1024B000980F9B8B882341F0C8010E94240FF6CF10
:1024C000C8010E94240F1B8A8B898111E1CF42E051
:1024D00050E0BE01615F7F4FC8010E944D0F42E096
:1024E00050E0BE01635F7F4FC8010E944D0FC801DD
:1024F0000E94240FC8010E94240FC8010E94240FCB
:10250000C8010E94240F42E050E0BE016F5E7F4F81
:10251000C8010E944D0F8F8598898115914029F43B
:102520008D859E858115914019F0812C912C16C0C6
:1025300089899A898115944031F0C8010E94DD0E85
:1025400087EF9FEF29C0B6016E5F7F4F44E050E0F8
:10255000C8010E944D0F81E090E01EC089899A89D0
:102560009827892798278816990638F4C8010E9469
:10257000240F2FEF821A920AF1CF8FEFE81AF80A90
:10258000EA14FB0409F084CFC8010E94DD0E86EF37
:102590009FEF02C08DEF9FEF63960FB6F894DEBFFA
:1025A0000FBECDBFDF91CF911F910F91FF90EF90A4
:1025B000DF90CF90BF90AF909F908F907F906F9063
:1025C0005F904F9008958F929F92AF92BF92CF925B
:1025D000DF92EF92FF920F931F93CF93DF9300D080
:1025E00000D000D0CDB7DEB78C015B016A010E943C
:1025F0008B104C01009709F05DC0F80142815381B6
:10260000648175818091AE049091AF04A091B00473
:10261000B091B104481759076A077B0709F44EC007
:102620000E94201C7801F8E0EF0EF11C6F707727F4
:102630007C5FC7010E94830F813009F043C083E8AB
:1026400093E09A838983F80182819381A481B58183
:102650008B839C83AD83BE8345E350E0BE016F5FF7
:102660007F4FC7010E94040F892B19F4812C912CF4
:102670001DC0B501C8010E94D710892BB9F3C7014D
:102680000E940C0F892B91F333E0A32EB12CA601ED
:1026900068E873E1C8010E9480114C01F1E0AF1AB3
:1026A000B10821F08F3F2FEF920789F3C7010E94F5
:1026B000EF0E08C088248394912C04C09EEF892ECD
:1026C00099249A94C40126960FB6F894DEBF0FBEE3
:1026D000CDBFDF91CF911F910F91FF90EF90DF90D1
:1026E000CF90BF90AF909F908F900895CF93DF933E
:1026F0001F92CDB7DEB76983DC01ED91FC910280BA
:10270000F381E02D41E050E0BE016F5F7F4F0995FE
:102710000F90DF91CF910895EF92FF920F931F9347
:10272000CF93DF93CDB7DEB72D970FB6F894DEBF0A
:102730000FBECDBF7C0100E010E0602FCE010196FE
:102740000E94C80DCE0101960E94DA0D811116C0BB
:10275000F7014481558120E061E0802F0E94E5155A
:10276000802F0E943916F70184819581F801EE0FC0
:10277000FF1FEE56FB4F9183808305C00F5F1F4FF5
:1027800004301105D1F62D960FB6F894DEBF0FBEBA
:10279000CDBFDF91CF911F910F91FF90EF900895E2
:1027A000FC011382128288E693E091838083758313
:1027B00064830895BF92CF92DF92EF92FF920F93BE
:1027C0001F93CF93DF93CDB7DEB72D970FB6F89455
:1027D000DEBF0FBECDBF8C0142E9C42E44E0D42E33
:1027E000B12CE12CF12C6B2DCE0101960E94C80D6D
:1027F000D6012D913D916D01F801848195812817B5
:102800003907B1F4CE0101960E94DA0D843169F0E6
:10281000CE0101960E94DA0D8C3151F4CE01019661
:102820000E941C0D892B99F003C0EE24E394F12C37
:10283000B394F4E0BF12D7CFEF2871F4D801ED9133
:10284000FC910480F581E02DC801099505C0CE01F9
:1028500001960E943F0EECCF2D960FB6F894DEBF86
:102860000FBECDBFDF91CF911F910F91FF90EF90E1
:10287000DF90CF90BF9008957F928F929F92AF92FA
:10288000BF92CF92DF92EF92FF920F931F93CF935D
:10289000DF93CDB7DEB72D970FB6F894DEBF0FBE2E
:1028A000CDBF6C015B014A010E94DA1352E9E52EAB
:1028B00054E0F52E712C00E010E0672DCE0101965A
:1028C0000E94C80DF701219131917F01F6018481A9
:1028D00095812817390731F4CE0101960E94DA0D4F
:1028E0008731C9F07394F4E07F12E7CFC8012D96C9
:1028F0000FB6F894DEBF0FBECDBFDF91CF911F9111
:102900000F91FF90EF90DF90CF90BF90AF909F908E
:102910008F907F900895A401B501CE0101960E9489
:10292000020D080F191FDECFBF92CF92DF92EF92F8
:10293000FF920F931F93CF93DF93CDB7DEB72D9701
:102940000FB6F894DEBF0FBECDBF8C016B01CB017B
:102950000E94DA1362E9E62E64E0F62EB12C6B2DAC
:10296000CE0101960E94C80DF701219131917F019E
:10297000F601848195812817390751F5CE0101961A
:102980000E94DA0D873111F08C3111F5CE010196DC
:102990000E941C0D892BE1F08B819C81F8019383AF
:1029A00082838D819E81AF81B88584839583A68340
:1029B000B78349855A856B857C85408751876287B7
:1029C000738780E293E0918380838D85848708C03C
:1029D000B394F4E0BF12C3CF64E0C8010E94C80DF5
:1029E000C8012D960FB6F894DEBF0FBECDBFDF91A4
:1029F000CF911F910F91FF90EF90DF90CF90BF90FC
:102A000008950F9300E020E040E060E082EB94E066
:102A10000E946A200F9108950F9300E020E040E0AB
:102A200060E088EB94E00E946A200F910895CF92B5
:102A3000DF92EF92FF920F9330E0C12CF2E1DF2E94
:102A4000FAE7EF2EF12C4C155D056E057F0540F47D
:102A5000F694E794D794C7943F5F3630A1F737E0F8
:102A600041E04327211102C050E701C050E5242F67
:102A700030E03595279523700C70202B252BFC0119
:102A80002083417041830F91FF90EF90DF90CF90B2
:102A9000089590E0982F882744E050E0845F9B4F92
:102AA0000C94AF19282F30E02C5F3F4F922F8827CE
:102AB000860F971F0C94DE1962E070E00C9452159B
:102AC000FB01282F30E02C5F3F4F922F8827642F87
:102AD0008E0F9F1F0C942519CF93DF93C82FD62FED
:102AE000472F64E070E00E9460154D2F65E070E0B4
:102AF0008C2FDF91CF910C946015462F62E070E02F
:102B00000C946015CF93DF93C82FD62F472F60E129
:102B100070E00E9460154D2F61E170E08C2FDF9115
:102B2000CF910C9460150F931F93CF93DF9300D038
:102B30001F92CDB7DEB7182F00E021E040E059E04A
:102B40006DE370E0CE0101960E94171589819A818C
:102B50000E94FF0A63E070E0812F0E9452158B8370
:102B60000E94190B8B810F900F900F90DF91CF91E6
:102B70001F910F9108950F931F93CF93DF9300D070
:102B8000CDB7DEB7182F00E021E040E059E06DE35B
:102B900070E0CE0101960E94171589819A810E94EA
:102BA000FF0A40E150E0612F80EC94E00E94A81BF6
:102BB0006FEF812F0E947D150E94190B0F900F90CF
:102BC000DF91CF911F910F910895CF92DF92EF92F5
:102BD000FF920F931F93CF93DF9300D0CDB7DEB753
:102BE000182FD62E7A01C22E8FEF860F8530A8F5CA
:102BF000812F0E94BB1500E021E040E059E06DE329
:102C000070E0CE0101960E94171589819A810E9479
:102C1000FF0A4D2D4C2960E070E0812F0E94601565
:102C2000E114F10411F0B7010AC06091BE04709183
:102C3000BF046F5F7F4F7093BF046093BE04812F0A
:102C40000E946C1541E050E0612F80EC94E00E94FE
:102C5000A81B0E94190B81E001C080E00F900F902B
:102C6000DF91CF911F910F91FF90EF90DF90CF9068
:102C700008950F931F93CF93DF9300D0CDB7DEB7A6
:102C8000182F00E021E040E059E06DE370E0CE0154
:102C900001960E94171589819A810E94FF0A63E0BC
:102CA00070E0812F0E945215833121F00E94190B90
:102CB00080E00AC042E050E0612F80EC94E00E9486
:102CC000A81B0E94190B81E00F900F90DF91CF910C
:102CD0001F910F910895CF92DF92EF92FF920F9381
:102CE0001F93CF93DF9300D0CDB7DEB7182F7B01B2
:102CF0006A01FB0180818F3F51F481818F3F99F4FC
:102D000082818F3F81F483818F3F69F430C08111CC
:102D10000AC0FB018181811106C08281811103C03B
:102D20008381882321F1C114D10409F100E021E05D
:102D300040E059E06DE370E0CE0101960E94171566
:102D400089819A810E94FF0AB701812F0E9449154B
:102D5000B601812F0E94821544E050E0612F80EC83
:102D600094E00E94A81B0E94190B81E001C080E042
:102D70000F900F90DF91CF911F910F91FF90EF90E7
:102D8000DF90CF9008950F931F93CF93DF9300D0E0
:102D9000CDB7DEB7182F00E021E040E059E06DE349
:102DA00070E0CE0101960E94171589819A810E94D8
:102DB000FF0A48E050E0612F80EC94E00E94A81BDD
:102DC0000E94190B0F900F90DF91CF911F910F91DF
:102DD0000895BF92CF92DF92EF92FF920F931F93CD
:102DE000CF93DF9300D01F92CDB7DEB7B82E6B0123
:102DF0007A01413088E0580718F0E12C98E0F92E6C
:102E000000E021E040E059E06DE370E0CE01019682
:102E10000E94171589819A810E94FF0A6B2D80EC10
:102E200094E00E94161A8C0163E070E08B2D0E94E2
:102E300052158B830E94190B8B81873111F08C31D5
:102E400031F40E94D51B0E151F05D0F202C0E12CF3
:102E5000F12C00E021E040E059E06DE370E0CE01AC
:102E600001960E94171589819A810E94FF0A970195
:102E7000A6016B2D80EC94E00E94D51A40E250E050
:102E80006B2D80EC94E00E94A81B8B2D0E945C159A
:102E900084FD22C063E070E08B2D0E9452158111E9
:102EA00008C00E94190B8B2D0E94BB1580E090E09A
:102EB0001AC00E94190B0E94D51B00E021E040E0DF
:102EC00059E06DE370E0CE0101960E9417158981EB
:102ED0009A810E94FF0AD9CF60E18B2D0E947D1557
:102EE0000E94190BC7010F900F900F90DF91CF91A7
:102EF0001F910F91FF90EF90DF90CF90BF900895BA
:102F0000AF92BF92CF92DF92EF92FF920F931F93F7
:102F1000CF93DF9300D0CDB7DEB7182F5B016A01E6
:102F200000E021E040E059E06DE370E0CE01019661
:102F30000E94171589819A810E94FF0A612F80ECF7
:102F400094E00E944A1A7C010097A1F463E070E0CB
:102F5000812F0E945215843119F1882309F121E053
:102F600030E08C3111F420E030E0EE24FF24E21A4E
:102F7000F30A16C0C816D9060CF476011E141F04F5
:102F80007CF400E09701A501612F80EC94E00E94A1
:102F9000581B40E450E0612F80EC94E00E94A81B95
:102FA0000E94190BC7010F900F90DF91CF911F91D5
:102FB0000F91FF90EF90DF90CF90BF90AF9008956A
:102FC0000F931F93CF93DF9300D000D0CDB7DEB720
:102FD000182F00E021E040E059E06DE370E0CE0101
:102FE00001960E94171589819A810E94FF0A612F1C
:102FF00080EC94E00E944A1A8B839C830E94190BF8
:103000008B819C810F900F900F900F90DF91CF914B
:103010001F910F910895EF92FF920F931F93CF93FB
:10302000DF9300D0CDB7DEB7182F7B0100E021E0A1
:1030300040E059E06DE370E0CE0101960E94171563
:1030400089819A810E94FF0A01E021E030E0A70116
:10305000612F80EC94E00E94581B0E94190B81E0C4
:1030600090E00F900F90DF91CF911F910F91FF9003
:10307000EF90089508959F92AF92BF92CF92DF9202
:10308000EF92FF920F931F93CF93DF9300D0CDB7B2
:10309000DEB7982E6B015A01790100E021E040E093
:1030A00059E06DE370E0CE0101960E941715898109
:1030B0009A810E94FF0A692D80EC94E00E94161A02
:1030C0008E159F0530F4692D80EC94E00E94161A4D
:1030D0007C0187019501A601692D80EC94E00E9496
:1030E000661A0E94190BC7010F900F90DF91CF91C4
:1030F0001F910F91FF90EF90DF90CF90BF90AF9016
:103100009F900895CF92DF92EF92FF920F931F93BB
:10311000CF93DF9300D0CDB7DEB7182F7B016A01C4
:10312000FB018081811109C08181811106C08281EA
:10313000811103C083818823F1F0C114D104D9F037
:1031400000E021E040E059E06DE370E0CE0101963F
:103150000E94171589819A810E94FF0AB701812F69
:103160000E944915B601812F0E9482150E94190BF9
:1031700081E090E002C080E090E00F900F90DF913E
:10318000CF911F910F91FF90EF90DF90CF90089516
:103190000F931F93CF93DF9300D0CDB7DEB7182FD7
:1031A00000E021E040E059E06DE370E0CE010196DF
:1031B0000E94171589819A810E94FF0A40E250E01F
:1031C000612F80EC94E00E94A81B812F0E945C1567
:1031D00084FD21C0812F0E945C1583FF09C068E136
:1031E000812F0E947D150E94190B80E090E01BC08A
:1031F0000E94190B0E94D51B00E021E040E059E03D
:103200006DE370E0CE0101960E94171589819A81C5
:103210000E94FF0ADACF60E1812F0E947D150E9493
:10322000190B81E090E00F900F90DF91CF911F91EB
:103230000F9108958EBD00000DB407FEFDCF8EB531
:1032400008952A9808952A9A08951F93CF93DF939B
:1032500000D0CDB7DEB7182F6A8399830E94211959
:1032600080EF0E941A199981892F0E941A19812FC3
:103270000E941A196A81862F0E941A190E94231926
:1032800081E00F900F90DF91CF911F910895CF9320
:10329000DF93EC016CE271E080E090E00E944F1C53
:1032A0000E94C90A229A80918804882399F09FB7C6
:1032B000F89480918804813059F48DB3809386040A
:1032C0002DB380918704809582238DBB9FBF02C060
:1032D0009093860480E58CBD1DBC60E880E090E0A2
:1032E0000E94251965E58BE190E00E94251965E5AE
:1032F0008AE190E00E94251980918804882361F07A
:103300009FB7F8942091880480918604213019F4A5
:103310008DBB9FBF01C08FBF80E090E499838883FD
:1033200080E090E69987888780E098E49B838A8391
:1033300080E098E69B878A8780E090E59D838C8378
:1033400080E090E79D878C8780E098E59F838E835F
:1033500080E098E79F878E87DF91CF910895CF9285
:10336000DF92EF92FF920F931F93CF93DF93EC01C5
:103370007A018B016C01C40ED51ECC15DD05A1F0C0
:103380000E94211980EF0E941A198D2F0E941A198C
:103390008C2F0E941A192196F80181918F010E94A9
:1033A0001A190E942319E9CFC701DF91CF911F910C
:1033B0000F91FF90EF90DF90CF9008951F93CF93E0
:1033C000DF931F92CDB7DEB7182F99830E94211982
:1033D0008FE00E941A199981892F0E941A19812F52
:1033E0000E941A1980E00E941A1989830E942319E9
:1033F00089810F90DF91CF911F9108951F93CF93F3
:10340000DF93182F60E270E00E945215C82FD0E0C1
:1034100061E270E0812F0E945215DC2FCC279E01C3
:10342000282BC901DF91CF911F910895FF920F932F
:103430001F93CF93DF93F62EC0E0D0E08F2D0E9434
:10344000FE198C01009721F08F2D0E94FE19EC01CE
:10345000C017D10799F7CE01DF91CF911F910F913E
:10346000FF9008951F93CF93DF93182F66E270E0CB
:103470000E945215C82FD0E067E270E0812F0E94B1
:103480005215DC2FCC279E01282BC901DF91CF914B
:103490001F910895FF920F931F93CF93DF93F62E02
:1034A000C0E0D0E08F2D0E94321A8C01009721F0ED
:1034B0008F2D0E94321AEC01C017D10799F7CE0167
:1034C000DF91CF911F910F91FF9008956F927F929E
:1034D0009F92AF92BF92CF92DF92EF92FF920F93A3
:1034E0001F93CF93DF931F92CDB7DEB7D82E962EC2
:1034F0003A01590164E270E0892D99830E945215C6
:10350000E82EF12C65E270E0892D0E945215FE2C08
:10351000EE24E82AE60CF71C970137706D2C998190
:10352000792E690C711C690C711CD301ED91FC9111
:10353000E20FF31FC901800F911F81309840A0F066
:10354000C12C48E0D42EC21AD30AA601B501CF017E
:103550000E94AF19A8014C195D09B5016C0D7D1DC4
:10356000F3018081918103C0A801B501CF010E94C0
:10357000AF19E00EF11E4F2D64E270E0892D0E941C
:1035800060154E2D65E270E0892D0F90DF91CF918F
:103590001F910F91FF90EF90DF90CF90BF90AF9071
:1035A0009F907F906F900C9460150F931F938901EB
:1035B0009A0140E050E00E94661A1F910F91089511
:1035C000CF92DF92EF92FF920F931F93CF93DF93EF
:1035D000EC017A018B016C01C40ED51ECC15DD0502
:1035E000A9F00E9421198FE00E941A198D2F0E94C4
:1035F0001A198C2F0E941A19219680E00E941A191C
:10360000F80181938F010E942319E8CFC701DF9150
:10361000CF911F910F91FF90EF90DF90CF90089581
:10362000AF92BF92CF92DF92EF92FF920F931F93D0
:10363000CF93DF9300D0CDB7DEB75A8349835901CA
:10364000E981FA81F7707C01E60EF11CE60EF11CAF
:10365000D70118968D919C9119978E0F9F1F9801F5
:103660002E0F3F1F2130384098F0C12C68E0D62E35
:10367000CE1ADF0AA601B5010E94E01AA8014C1972
:103680005D09B5016C0D7D1DF7018085918502C036
:10369000A801B5010F900F90DF91CF911F910F916D
:1036A000FF90EF90DF90CF90BF90AF900C94E01A16
:1036B0008F929F92AF92BF92CF92DF92EF92FF9242
:1036C0000F931F93CF93DF936C01962E5A017901CC
:1036D000802E68E270E0892D0E945215C82FD0E03C
:1036E00069E270E0892D0E945215DC2FCC27C82B8F
:1036F00087019501AE01692DC6010E94101B811042
:103700001AC0CE0DDF1D4D2F68E270E0892D0E949A
:1037100060154C2F69E270E0892DDF91CF911F91E8
:103720000F91FF90EF90DF90CF90BF90AF909F9060
:103730008F900C946015DF91CF911F910F91FF90A6
:10374000EF90DF90CF90BF90AF909F908F900895B3
:10375000CF93C62F61E070E08C2F0E94601561E06E
:1037600070E08C2F0E9452158111F9CFCF910895EE
:103770008E3008F08E5087702091120190E4299FBE
:1037800090011124822B80937C0080917A008064C8
:1037900080937A0080917A0086FDFCCF809178003A
:1037A0002091790090E0922B089508951F920F9236
:1037B0000FB60F9211242F933F938F939F93AF9344
:1037C000BF938091D1049091D204A091D304B09181
:1037D000D4043091D00423E0230F2D3720F4019638
:1037E000A11DB11D05C026E8230F0296A11DB11D24
:1037F0002093D0048093D1049093D204A093D30457
:10380000B093D4048091D5049091D604A091D704AC
:10381000B091D8040196A11DB11D8093D504909359
:10382000D604A093D704B093D804BF91AF919F91D1
:103830008F913F912F910F900FBE0F901F90189571
:103840002FB7F8946091D1047091D2048091D30481
:103850009091D4042FBF08953FB7F8948091D50478
:103860009091D604A091D704B091D80426B5A89B16
:1038700005C02F3F19F00196A11DB11D3FBF66275E
:10388000782F892F9A2F620F711D811D911D42E0A3
:10389000660F771F881F991F4A95D1F70895CF9219
:1038A000DF92EF92FF92CF93DF936B017C010E9436
:1038B0002C1CEB01C114D104E104F10489F00E9435
:1038C000D51B0E942C1C6C1B7D0B683E734090F333
:1038D00081E0C81AD108E108F108C851DC4FEACFED
:1038E000DF91CF91FF90EF90DF90CF900895789483
:1038F00084B5826084BD84B5816084BD85B58260F5
:1039000085BD85B5816085BDEEE6F0E08081816092
:103910008083E1E8F0E01082808182608083808192
:1039200081608083E0E8F0E0808181608083E1EB6A
:10393000F0E0808184608083E0EBF0E08081816052
:103940008083EAE7F0E08081846080838081826008
:1039500080838081816080838081806880831092F1
:10396000C1000895833081F028F4813099F08230CD
:10397000A1F008958730A9F08830B9F08430D1F4EF
:10398000809180008F7D03C0809180008F7780932D
:103990008000089584B58F7702C084B58F7D84BD83
:1039A00008958091B0008F7703C08091B0008F7D23
:1039B0008093B0000895CF93DF9390E0FC01E25034
:1039C000FF4F2491FC01EE5EFE4F8491882349F164
:1039D00090E0880F991FFC01E05DFE4FA591B49126
:1039E0008A5D9E4FFC01C591D4919FB7611108C0BB
:1039F000F8948C91209582238C93888182230AC02D
:103A0000623051F4F8948C91322F309583238C934B
:103A10008881822B888304C0F8948C91822B8C93AC
:103A20009FBFDF91CF9108950F931F93CF93DF93A3
:103A30001F92CDB7DEB7282F30E0F901E651FF4FD6
:103A40008491F901E250FF4F1491F901EE5EFE4FAF
:103A500004910023C9F0882321F069830E94B21CDD
:103A60006981E02FF0E0EE0FFF1FEA5DFE4FA591A8
:103A7000B4919FB7F8948C91611103C01095812384
:103A800001C0812B8C939FBF0F90DF91CF911F912D
:103A90000F910895CF92DF92EF92FF920F931F93B1
:103AA000CF93DF936C017A01EB01E60EF71E00E085
:103AB00010E0CE15DF0561F06991D601ED91FC9122
:103AC0000190F081E02DC6010995080F191FF1CF73
:103AD000C801DF91CF911F910F91FF90EF90DF9080
:103AE000CF9008956115710581F0DB010D900020E4
:103AF000E9F7AD0141505109461B570BDC01ED912F
:103B0000FC910280F381E02D099480E090E008951B
:103B10000C94721DDC01ED91FC910190F081E02D7F
:103B20000994DB01ED91FC9111970190F081E02D5A
:103B3000BC01CD0109946EE673E00C94721D0F93E5
:103B40001F93CF93DF93EC010E94721D8C01CE0175
:103B50000E949B1D800F911FDF91CF911F910F91AC
:103B600008950F931F93CF93DF93EC010E94911D53
:103B70008C01CE010E949B1D800F911FDF91CF9180
:103B80001F910F9108958F929F92AF92BF92CF9203
:103B9000DF92EF92FF920F931F93CF93DF93CDB7F6
:103BA000DEB7A1970FB6F894DEBF0FBECDBF7C0184
:103BB000C42EE52FCB01D22E19A221E02D1510F035
:103BC0002AE0D22E8E010F5D1F4F8D2C912CA12C3F
:103BD000B12C6C2D7E2FA50194010E947D258C2D8A
:103BE000D29E80191124015011098A3014F4805D8D
:103BF00001C0895CF801808321153105410551051B
:103C000021F0C22EE32FCA01E4CFB801C7010E9400
:103C1000721DA1960FB6F894DEBF0FBECDBFDF9127
:103C2000CF911F910F91FF90EF90DF90CF90BF90B9
:103C3000AF909F908F900895CF92DF92EF92FF9276
:103C40000F931F93CF93DF93EC016A017B01211542
:103C5000310579F4E881F9810190F081E02D642F3C
:103C6000DF91CF911F910F91FF90EF90DF90CF9058
:103C700009942A303105E9F477FF1AC06DE20E94F9
:103C80008A1D8C0144275527BA014C195D096E091C
:103C90007F092AE0CE010E94C31D800F911FDF9192
:103CA000CF911F910F91FF90EF90DF90CF900895EB
:103CB0002AE0B701A601CE01DF91CF911F910F91AC
:103CC000FF90EF90DF90CF900C94C31D9A01AB0151
:103CD000662757FD6095762F0C941C1E0F931F933B
:103CE000CF93DF93EC010E941C1E8C01CE010E9439
:103CF0009B1D800F911FDF91CF911F910F91089510
:103D00002115310541F4DC01ED91FC910190F08128
:103D1000E02D642F09940C94C31D9A01462F50E0A6
:103D200060E070E00C94801E4F925F926F927F92E1
:103D30008F929F92AF92BF92CF92DF92EF92FF92BB
:103D40000F931F93CF93DF93EC016A017B01B22E97
:103D50009A01AB01C701B6010E945024882319F0D3
:103D600061E773E027C026013701E89477F82FEF69
:103D70003FEF4FE75FE7C301B2010E94502481117A
:103D80000DC02FEF3FEF4FE75FE7C301B2010E9485
:103D90004E2218161CF465E773E00CC02FEF3FEFBE
:103DA0004FE75FE4C701B6010E949D231816ACF4EB
:103DB00069E773E0CE01DF91CF911F910F91FF90E2
:103DC000EF90DF90CF90BF90AF909F908F907F90BB
:103DD0006F905F904F900C94721D2FEF3FEF4FE765
:103DE0005FECC701B6010E944E2287FDE1CF20E0C3
:103DF00030E0A901C701B6010E944E2287FF0AC028
:103E00006DE2CE010E948A1D8C01F7FAF094F7F85A
:103E1000F09402C000E010E0A12C60E070E080E0CF
:103E20009FE3AB1441F020E030E040E251E40E9417
:103E30005222A394F6CF9B01AC01C701B6010E94A8
:103E4000EA216B017C010E94BF222B013C010E94F0
:103E5000EB229B01AC01C701B6010E94E9216B0175
:103E60007C012AE0B301A201CE010E94C31D080F0C
:103E7000191FBB2039F06DE773E0CE010E94721D5F
:103E8000080F191F7B2C772041F120E030E040E241
:103E900051E4C701B6010E94A1236B017C010E947D
:103EA000BA224B01AA2497FCA094BA2C2AE030E055
:103EB000B501A401CE010E941C1E080F191FC501E7
:103EC000B4010E94ED229B01AC01C701B6010E9422
:103ED000E9216B017C017A94D6CFC801DF91CF91A3
:103EE0001F910F91FF90EF90DF90CF90BF90AF9018
:103EF0009F908F907F906F905F904F9008950C945B
:103F0000941E1F920F920FB60F9211242F938F932E
:103F10009F93EF93FF93E091E904F091EA0480818D
:103F2000E091EF04F091F00482FD12C09081809145
:103F3000F2048F5F8F732091F304821751F0E091A8
:103F4000F204F0E0E752FB4F958F8093F20401C03A
:103F50008081FF91EF919F918F912F910F900FBED4
:103F60000F901F9018951F920F920FB60F92112469
:103F70002F933F934F935F936F937F938F939F9371
:103F8000AF93BF93EF93FF9389ED94E00E94CF200E
:103F9000FF91EF91BF91AF919F918F917F916F9121
:103FA0005F914F913F912F910F900FBE0F901F90F7
:103FB000189589ED94E00E94942021E0892B09F462
:103FC00020E0822F08951092DC041092DB0488EE2A
:103FD00093E0A0E0B0E08093DD049093DE04A09332
:103FE000DF04B093E00489E893E09093DA048093CF
:103FF000D90485EC90E09093E6048093E50484EC8A
:1040000090E09093E8048093E70480EC90E0909334
:10401000EA048093E90481EC90E09093EC048093AF
:10402000EB0482EC90E09093EE048093ED0486EC38
:1040300090E09093F0048093EF041092F2041092B9
:10404000F3041092F4041092F5040895AF92BF9215
:10405000CF92DF92EF92FF920F931F93CF93DF9354
:104060006C017B01C0E0D0E000E010E0F601EC0F55
:10407000FD1F4AE050E06281C7010E948D1E5C0175
:104080006EE2C7010E948A1D8A0D9B1D080F191F31
:104090002196C330D10551F74AE050E0F601658121
:1040A000C7010E948D1E800F911FDF91CF911F913C
:1040B0000F91FF90EF90DF90CF90BF90AF90089559
:1040C00023E833E0FC0131832083128213821482BF
:1040D000158208950F93FC0183E893E09183808318
:1040E00062834383248305830F910895FB014081FC
:1040F000518162817381FC014283538364837583A0
:10410000089583E893E09093770580937605109265
:1041100078051092790510927A0510927B05089522
:104120000E940D270C947E26FC01818D228D90E04B
:10413000805C9F4F821B91098F7399270895FC0122
:10414000918D828D981731F0828DE80FF11D858D4C
:1041500090E008958FEF9FEF0895FC01918D828D7F
:10416000981761F0828DDF01A80FB11D5D968C91CB
:10417000928D9F5F9F73928F90E008958FEF9FEFD6
:10418000089589ED9FE1892B49F080E090E0892B2B
:1041900029F00E94D91F81110C9400000895FC01A0
:1041A000848DDF01A80FB11DA35ABF4F2C91848DC0
:1041B00090E001968F739927848FA689B7892C93F5
:1041C000A089B1898C9180648C93938D848D981390
:1041D00006C00288F389E02D80818F7D8083089559
:1041E000CF93DF93EC01888D8823C9F0EA89FB899E
:1041F000808185FD05C0A889B9898C9186FD0FC095
:104200000FB607FCF5CF808185FFF2CFA889B98969
:104210008C9185FFEDCFCE010E94CF20E7CFDF91BB
:10422000CF910895CF92DF92FF920F931F93CF9378
:10423000DF931F92CDB7DEB76C0181E0D6015896AF
:104240008C9358975B969C915B975C968C915C974E
:10425000981307C05096ED91FC915197808185FD90
:104260002EC0F601038D10E00F5F1F4F0F73112753
:10427000F02EF601848DF81211C00FB607FCF9CFAD
:10428000D6015096ED91FC915197808185FFF1CF39
:10429000C60169830E94CF206981EBCF838DE80F2F
:1042A000F11DE35AFF4F6083D6015B960C935B9739
:1042B0005296ED91FC915397808180620CC0D6019B
:1042C0005696ED91FC91579760835096ED91FC9135
:1042D000519780818064808381E090E00F90DF912E
:1042E000CF911F910F91FF90DF90CF900895BF92D3
:1042F000CF92DF92EF92FF92CF93DF93EC016A01AE
:104300007B01B22EE889F98982E08083411581EE34
:10431000580761057105A1F060E079E08DE390E058
:10432000A70196010E947D252150310941095109BB
:104330005695479537952795211580E1380798F0D0
:10434000E889F989108260E874E88EE190E0A701BD
:1043500096010E947D252150310941095109569548
:10436000479537952795EC85FD853083EE85FF854C
:104370002083188EEC89FD89B082EA89FB898081CF
:1043800080618083EA89FB89808188608083EA89F3
:10439000FB89808180688083EA89FB8980818F7DA9
:1043A0008083DF91CF91FF90EF90DF90CF90BF900F
:1043B000089508950E94771C0E94D9210E943A0214
:1043C000C1ECD0E20E94BC022097E1F30E94C12020
:1043D000F9CF5058BB27AA270ED075C166D130F04F
:1043E0006BD120F031F49F3F11F41EF45BC10EF449
:1043F000E095E7FB51C1E92F77D180F3BA17620747
:1044000073078407950718F071F49EF58FC10EF4B9
:10441000E0950B2EBA2FA02D0B01B90190010C01D4
:10442000CA01A0011124FF27591B99F0593F50F4EC
:10443000503E68F11A16F040A22F232F342F442744
:10444000585FF3CF469537952795A795F04053953C
:10445000C9F77EF41F16BA0B620B730B840BBAF00C
:104460009150A1F0FF0FBB1F661F771F881FC2F777
:104470000EC0BA0F621F731F841F48F4879577958B
:104480006795B795F7959E3F08F0B3CF9395880F42
:1044900008F09927EE0F979587950895D9D008F4DD
:1044A00081E008950CD00FC107D140F0FED030F06C
:1044B00021F45F3F19F0F0C0511139C1F3C014D19C
:1044C00098F39923C9F35523B1F3951B550BBB27DB
:1044D000AA2762177307840738F09F5F5F4F220F88
:1044E000331F441FAA1FA9F333D00E2E3AF0E0E881
:1044F00030D091505040E695001CCAF729D0FE2FCD
:1045000027D0660F771F881FBB1F2617370748075E
:10451000AB07B0E809F0BB0B802DBF01FF27935814
:104520005F4F2AF09E3F510568F0B6C000C15F3F63
:10453000ECF3983EDCF3869577956795B795F795FC
:104540009F5FC9F7880F911D9695879597F90895F4
:10455000E1E0660F771F881FBB1F62177307840790
:10456000BA0720F0621B730B840BBA0BEE1F88F79F
:10457000E095089504D06894B111D9C00895BCD0D5
:1045800088F09F5790F0B92F9927B751A0F0D1F03C
:10459000660F771F881F991F1AF0BA95C9F712C0C6
:1045A000B13081F0C3D0B1E00895C0C0672F782F3B
:1045B0008827B85F39F0B93FCCF386957795679532
:1045C000B395D9F73EF490958095709561957F4F9E
:1045D0008F4F9F4F0895E89409C097FB3EF4909544
:1045E0008095709561957F4F8F4F9F4F9923A9F0CC
:1045F000F92F96E9BB279395F6958795779567955B
:10460000B795F111F8CFFAF4BB0F11F460FF1BC09E
:104610006F5F7F4F8F4F9F4F16C0882311F096E931
:1046200011C0772321F09EE8872F762F05C06623DF
:1046300071F096E8862F70E060E02AF09A95660F98
:10464000771F881FDAF7880F9695879597F9089551
:10465000990F0008550FAA0BE0E8FEEF1616170693
:10466000E807F907C0F012161306E407F50798F0FB
:10467000621B730B840B950B39F40A2661F0232B14
:10468000242B252B21F408950A2609F4A140A69590
:104690008FEF811D811D089597F99F6780E870E075
:1046A00060E008959FEF80EC089500240A941616A8
:1046B000170618060906089500240A941216130610
:1046C000140605060895092E0394000C11F488239E
:1046D00052F0BB0F40F4BF2B11F460FF04C06F5FBA
:1046E0007F4F8F4F9F4F089557FD9058440F551F90
:1046F00059F05F3F71F04795880F97FB991F61F064
:104700009F3F79F087950895121613061406551FDA
:10471000F2CF4695F1DF08C0161617061806991F46
:10472000F1CF86957105610508940895E894BB273B
:1047300066277727CB0197F908958ADF08F48FEF72
:1047400008950BD0C0CFB1DF28F0B6DF18F0952365
:1047500009F0A2CFA7CF1124EACFC6DFA0F3959F1F
:10476000D1F3950F50E0551F629FF001729FBB2758
:10477000F00DB11D639FAA27F00DB11DAA1F649F04
:104780006627B00DA11D661F829F2227B00DA11DB7
:10479000621F739FB00DA11D621F839FA00D611D3D
:1047A000221F749F3327A00D611D231F849F600D5E
:1047B000211D822F762F6A2F11249F5750408AF097
:1047C000E1F088234AF0EE0FFF1FBB1F661F771F23
:1047D000881F91505040A9F79E3F510570F05CCF63
:1047E000A6CF5F3FECF3983EDCF38695779567950F
:1047F000B795F795E7959F5FC1F7FE2B880F911D41
:104800009695879597F90895FA01EE0FFF1F309658
:104810002105310599F16115710561F48038BFE317
:104820009B0749F168949038810561F08038BFEFAB
:104830009B0741F0992342F5FF3FE1053105210532
:1048400011F1E8940894E795D901AA2329F4AB2F34
:10485000BE2FF85FD0F310C0FF5F70F4A695E0F7AD
:10486000F73950F019F0FF3A38F49F779F930CD046
:104870000F9007FC905808953EF014CF60E070E070
:1048800080E89FE308954FE79F775F934F933F93AF
:104890002F93A2D02F913F914F915F9152DF09C08A
:1048A000D7DE880B990B089519F40EF0F5CE3ECFA4
:1048B000F9CE22DFC8F39638C0F707F80F92E894D4
:1048C0002BE33AEA48EB5FE74ADF0F920F920F9231
:1048D0004DB75EB70F92C0D0E8E6F0E016D04F912A
:1048E0005F91EF91FF91E595EE1FFF1F49F0FE5795
:1048F000E0684427EE0F441FFA95E1F74195550B08
:1049000032D00F9007FE26C00895DF93CF931F93F8
:104910000F93FF92EF92DF927B018C01689405C0A8
:10492000DA2EEF011ADFFE01E894A5912591359169
:1049300045915591AEF3EF015EDDFE019701A801AF
:10494000DA9479F7DF90EF90FF900F911F91CF915C
:10495000DF9108959B01AC0160E070E080E89FE387
:10496000A1CD9ACEACC0C8DEE8F39923D9F3940F59
:10497000511DBBF39150504094F059F0882332F010
:10498000660F771F881F91505040C1F79E3F510519
:1049900044F7880F911D9695879597F908955F3F85
:1049A000ACF0983E9CF0BB27869577956795B795B8
:1049B00008F4B1609395C1F7BB0F58F711F460FF8D
:1049C000E8CF6F5F7F4F8F4F9F4FE3CFB0CE0EF09A
:1049D00076C068CE689460CE8FDEC8F39923D1F399
:1049E000C6F3DF93CF931F930F93FF92C92FDD2759
:1049F00088232AF02197660F771F881FDAF720E0B7
:104A000030E040E85FEB9FE3883920F0803E30F0F3
:104A100021968F77DFDCE0E9F0E003C0DBDCEDEB33
:104A2000F0E073DF8B01BE01EC01FB2E6F577109C3
:104A30007595771F880B990BD0DD28E132E741E3AC
:104A40005FE38BDEAF2D9801AE01FF900F911F91B8
:104A5000CF91DF91D0DC37CEFA01DC01AA0FBB1F6A
:104A60009B01AC01BF5728F42227332744275078F5
:104A70001FC0B75188F4AB2F002446953795279572
:104A8000011CA395D2F3002069F0220F331F441FAD
:104A9000B395DAF30DD09DCC61307105A0E88A079B
:104AA000B94630F49B01AC016627772788279078B8
:104AB000309621F0208331834283538308959F3FB2
:104AC00031F0915020F4879577956795B795880FC9
:104AD000911D9695879597F90895DB018F939F9384
:104AE0000E94BE25BF91AF91A29F800D911DA39FF3
:104AF000900DB29F900D11240895A1E21A2EAA1BC9
:104B0000BB1BFD010DC0AA1FBB1FEE1FFF1FA2177D
:104B1000B307E407F50720F0A21BB30BE40BF50B7A
:104B2000661F771F881F991F1A9469F76095709503
:104B3000809590959B01AC01BD01CF010895052E94
:104B400097FB1EF400940E94B62557FD07D00E94E3
:104B50007D2507FC03D04EF40C94B6255095409566
:104B6000309521953F4F4F4F5F4F08959095809519
:104B7000709561957F4F8F4F9F4F08950E94D72565
:104B8000A59F900DB49F900DA49F800D911D1124A1
:104B90000895B7FF0C94BE250E94BE25821B930B7F
:104BA0000895EE0FFF1F0590F491E02D0994A29F48
:104BB000B001B39FC001A39F700D811D1124911DF1
:104BC000B29F700D811D1124911D0895CF93DF9325
:104BD0008230910510F482E090E0E0917E05F09142
:104BE0007F0520E030E0A0E0B0E0309739F140816F
:104BF000518148175907B8F04817590771F4828155
:104C00009381109729F013969C938E9312972CC042
:104C100090937F0580937E0527C02115310531F0E3
:104C20004217530718F0A901DB0101C0EF019A01F7
:104C3000BD01DF010280F381E02DD7CF21153105C1
:104C4000F9F0281B390B2430310580F48A819B81CF
:104C50006115710521F0FB019383828304C0909359
:104C60007F0580937E05FE01329644C0FE01E20F6F
:104C7000F31F8193919322503109398328833AC0DD
:104C800020917C0530917D05232B41F42091020178
:104C90003091030130937D0520937C052091000124
:104CA000309101012115310541F42DB73EB74091F6
:104CB000040150910501241B350BE0917C05F09116
:104CC0007D05E217F307A0F42E1B3F0B28173907C9
:104CD00078F0AC014E5F5F4F2417350748F04E0F58
:104CE0005F1F50937D0540937C058193919302C093
:104CF000E0E0F0E0CF01DF91CF910895CF93DF9313
:104D0000009709F487C0FC01329713821282C09188
:104D10007E05D0917F05209781F420813181280F75
:104D2000391F80917C0590917D058217930779F555
:104D3000F0937D05E0937C056DC0DE0120E030E05E
:104D4000AE17BF0750F412964D915C9113979D01D9
:104D50004115510509F1DA01F3CFB383A2834081F4
:104D60005181840F951F8A179B0771F48D919C9137
:104D70001197840F951F02969183808312968D91CF
:104D80009C911397938382832115310529F4F09325
:104D90007F05E0937E053EC0D9011396FC93EE9308
:104DA00012974D915D91A40FB51FEA17FB0779F497
:104DB00080819181840F951F0296D90111969C9351
:104DC0008E938281938113969C938E931297E0E049
:104DD000F0E08A819B81009719F0FE01EC01F9CF88
:104DE000CE01029628813981820F931F20917C0584
:104DF00030917D052817390769F4309729F410920E
:104E00007F0510927E0502C013821282D0937D0529
:104E1000C0937C05DF91CF91089581E090E0F894F4
:104E20000C942127FB01DC014150504048F00190D7
:104E30000D920020C9F701C01D9241505040E0F78B
:104E4000089511E0CEE4D1E004C0FE010E94D32514
:0C4E50002296C035D107C9F7F894FFCFB7
:104E5C000000800580000100000000D0BEEFFED8ED
:104E6C0000C0012068506100204300206D00536594
:104E7C006E736F72206572726F72002D2D2D2D2D39
:104E8C002D2D2D2D2D2D2D2D2D2D2D2D2D2D2D2D46
:104E9C002D2D2D2D2D2D2D2D2D2D2D2D2D2D2D0063
:104EAC0053656E736F723A2020202020202000441E
:104EBC007269766572205665723A20202000556E14
:104ECC00697175652049443A20202020004D617895
:104EDC002056616C75653A20202020004D696E20AB
:104EEC0056616C75653A20202020005265736F6CFA
:104EFC007574696F6E3A202020005072657373755B
:104F0C0072652053656E736F722054657374004F15
:104F1C006F6F70732C206E6F20424D5030383520DF
:104F2C006465746563746564202E2E2E2043686559
:104F3C00636B20796F757220776972696E67206F69
:104F4C0072204932432041444452210073657276E9
:104F5C00657220697320617420006E657720636C24
:104F6C0069656E7400485454502F312E3120323004
:104F7C0030204F4B00436F6E74656E742D547970F6
:104F8C00653A20746578742F68746D6C00436F6E8D
:104F9C006E656374696F6E3A20636C6F7365005253
:104FAC006566726573683A2035003C21444F435462
:104FBC005950452048544D4C3E003C68746D6C3E35
:104FCC0000616E616C6F6720696E707574200020D3
:104FDC00697320002020202020206C656420636CE5
:104FEC0069676E6F746500202054656D7065726121
:104FFC00747572653A200020416C7469747564652F
:10500C003A20202020002020507265737375726541
:10501C003A20202020003C6272202F3E003C2F685A
:10502C00746D6C3E00636C69656E742064697363A7
:10503C006F6E6E65637465640000000000D200D969
:10504C0000D800902090200000000032040504DA03
:10505C0003E203F5030404424D50303835000000E0
:10506C000000BA06C006D8007E0AC7060000000081
:10507C00D90C020D1C0D250D430D660DE20D6A0DAC
:10508C003F0D3F0E790EEF0CCA0CCD0CF70CCF0C6C
:10509C0000000000C70E100FC30E240F6A0FDD0EA8
:1050AC00830FEF0E040F15100C0FB00F4D0FA80E41
:1050BC00AF0EBF0E0000000076133C148C130D0ACB
:1050CC00006E616E00696E66006F7666002E0000E1
:1050DC0000000026200000000012214A1D9420AD83
:0650EC00209F20F02000CF
:00000001FF
